:100000000C9434000C9451000C9451000C94510049
:100010000C9451000C9451000C9451000C9451001C
:100020000C9451000C9451000C9451000C9451000C
:100030000C9451000C9451000C9451000C945100FC
:100040000C9451000C9451000C9451000C945100EC
:100050000C9451000C9451000C9451000C945100DC
:100060000C9451000C94510011241FBECFEFD8E026
:10007000DEBFCDBF11E0A0E0B1E0E8E9F1E002C0F1
:1000800005900D92AC30B107D9F721E0ACE0B1E0BA
:1000900001C01D92AE30B207E1F70E94B9000C9486
:1000A000CA000C9400008FEF84B98AB908959FEFBD
:1000B00095B9E82FF0E0EF5FFE4F80818BB981E0CA
:1000C00090E001C0880F6A95EAF7809585B98FE1C5
:1000D0009EE40197F1F700C000000895FF920F938E
:1000E0001F93CF93DF93382F64E60E94BE00F82E53
:1000F0002AE0832F622F0E94BE00192F0E94BE00AB
:10010000092FC2E3D0E062E08F2D0E94570061E02A
:10011000802F0E94570060E0812F0E945700219796
:1001200091F7DF91CF911F910F91FF90089520914A
:100130000D0190910001822F890F80930C0182178D
:10014000A8F410920C0110920D0181E0809300013F
:1001500080910C010E946E002FEF81EE94E02150FF
:1001600080409040E1F700C00000089590930D0199
:10017000EDCF0E9453000E949700FDCF991B79E0BC
:1001800004C0991F961708F0961B881F7A95C9F727
:0801900080950895F894FFCF5B
:0C019800013F065B4F666D7D077F6F0026
:00000001FF
