:100000000C9434000C9451000C9451000C94510049
:100010000C9451000C9451000C9451000C9451001C
:100020000C9451000C9451000C9451000C9451000C
:100030000C9451000C9451000C9451000C945100FC
:100040000C9451000C9451000C9451000C945100EC
:100050000C9451000C9451000C9451000C945100DC
:100060000C9451000C94510011241FBECFEFD8E026
:10007000DEBFCDBF11E0A0E0B1E0E0E0F1E002C002
:1000800005900D92A230B107D9F721E0A2E0B1E0CE
:1000900001C01D92A430B207E1F70E9479000C94D0
:1000A0007E000C9400008FEF8AB908958BB90895F3
:1000B0002091030190910001822F890F809302010A
:1000C0008217A0F4109202011092030181E0809344
:1000D0000001809102018BB92FEF8DE399E421504B
:1000E00080409040E1F700C0000008959093030124
:1000F000EECF8FEF8AB90E945800FDCFF894FFCF62
:020100000100FC
:00000001FF
