:100000000C9434000C943E000C943E000C943E0082
:100010000C943E000C943E000C943E000C943E0068
:100020000C943E000C943E000C943E000C943E0058
:100030000C943E000C943E000C943E000C943E0048
:100040000C943E000C943E000C943E000C943E0038
:100050000C943E000C943E000C943E000C943E0028
:100060000C943E000C943E0011241FBECFEFD8E04C
:10007000DEBFCDBF0E946E000C9473000C94000094
:1000800014B884B184B980E58CBD85B185B9089573
:100090008EBD91E00DB407FE02C08EB5089585B106
:1000A000892785B92FEF39E688E12150304080401B
:1000B000E1F700C00000EECF209A0C94400085B11B
:1000C00085B985E00E94480081E00E94480085B122
:1000D00085B985B191E0892785B908950E945C00B2
:0A00E0000E945F00FDCFF894FFCFEF
:00000001FF
