:100000000C9434000C9446000C9446000C9446006A
:100010000C9446000C9446000C9446000C94460048
:100020000C9446000C9446000C9446000C94460038
:100030000C9446000C9446000C9446000C94460028
:100040000C9446000C9446000C9446000C94460018
:100050000C9446000C9446000C9446000C94460008
:100060000C9446000C94460011241FBECFEFD8E03C
:10007000DEBFCDBF21E0A0E0B1E001C01D92A33002
:10008000B207E1F70E94A7000C94C6000C94000090
:1000900080E184B984B1837D84B980E48CBD089506
:1000A0008EBD0DB407FEFDCF8EB50895209A0C9439
:1000B00048000F931F93CF930DB407FE42C09EB527
:1000C000E091020181E08E0F80930201F0E0E050A8
:1000D000FF4F90838230A8F110920201C09100017D
:1000E00060910101613091F044F4CF5F662379F0B3
:1000F00010E000E0C0E085E10DC0623031F1633016
:10010000B9F78C2F0E94AC00C82F01C0C15001E08C
:1001100010E086E00E9450000130110529F42A9871
:100120008C2F0E9450002A9A85B191E0892785B9C9
:100130002FEF83ED90E3215080409040E1F700C025
:100140000000CF911F910F910895CC0FE0CF0E9436
:1001500056000E945900FDCF87FB082E062687FD1A
:10016000819567FD61950E94BA000EF4919507FC98
:1001700081950895991B79E004C0991F961708F09E
:10018000961B881F7A95C9F780950895F894FFCF3C
:00000001FF
